{
  "_format": "hh-sol-artifact-1",
  "contractName": "Twitter",
  "sourceName": "contracts/Twitter.sol",
  "abi": [
    {
      "inputs": [
        {
          "internalType": "address",
          "name": "_iAuthentication",
          "type": "address"
        }
      ],
      "stateMutability": "nonpayable",
      "type": "constructor"
    },
    {
      "inputs": [
        {
          "internalType": "bytes4",
          "name": "_postId",
          "type": "bytes4"
        },
        {
          "internalType": "string",
          "name": "_comment",
          "type": "string"
        }
      ],
      "name": "addComment",
      "outputs": [],
      "stateMutability": "nonpayable",
      "type": "function"
    },
    {
      "inputs": [
        {
          "internalType": "bytes4",
          "name": "_commentId",
          "type": "bytes4"
        }
      ],
      "name": "addLikeOnComments",
      "outputs": [],
      "stateMutability": "nonpayable",
      "type": "function"
    },
    {
      "inputs": [
        {
          "internalType": "bytes4",
          "name": "_commentId",
          "type": "bytes4"
        },
        {
          "internalType": "string",
          "name": "_reply",
          "type": "string"
        }
      ],
      "name": "addReply",
      "outputs": [],
      "stateMutability": "nonpayable",
      "type": "function"
    },
    {
      "inputs": [
        {
          "internalType": "string",
          "name": "_content",
          "type": "string"
        }
      ],
      "name": "createPost",
      "outputs": [],
      "stateMutability": "nonpayable",
      "type": "function"
    },
    {
      "inputs": [
        {
          "internalType": "bytes4",
          "name": "_postId",
          "type": "bytes4"
        }
      ],
      "name": "deletePost",
      "outputs": [],
      "stateMutability": "nonpayable",
      "type": "function"
    },
    {
      "inputs": [
        {
          "internalType": "bytes4",
          "name": "_postId",
          "type": "bytes4"
        }
      ],
      "name": "disLikePost",
      "outputs": [],
      "stateMutability": "nonpayable",
      "type": "function"
    },
    {
      "inputs": [
        {
          "internalType": "bytes4",
          "name": "_commentId",
          "type": "bytes4"
        }
      ],
      "name": "dislikeOnComments",
      "outputs": [],
      "stateMutability": "nonpayable",
      "type": "function"
    },
    {
      "inputs": [],
      "name": "getAllPosts",
      "outputs": [
        {
          "internalType": "bytes4[]",
          "name": "",
          "type": "bytes4[]"
        }
      ],
      "stateMutability": "view",
      "type": "function"
    },
    {
      "inputs": [
        {
          "internalType": "bytes4",
          "name": "_commentId",
          "type": "bytes4"
        }
      ],
      "name": "getCommentInfo",
      "outputs": [
        {
          "internalType": "address",
          "name": "user",
          "type": "address"
        },
        {
          "internalType": "bytes4",
          "name": "postId",
          "type": "bytes4"
        },
        {
          "internalType": "bytes4",
          "name": "commentId",
          "type": "bytes4"
        },
        {
          "internalType": "string",
          "name": "comment",
          "type": "string"
        },
        {
          "internalType": "uint256",
          "name": "commentTotalLike",
          "type": "uint256"
        },
        {
          "internalType": "uint256",
          "name": "commentTime",
          "type": "uint256"
        }
      ],
      "stateMutability": "view",
      "type": "function"
    },
    {
      "inputs": [
        {
          "internalType": "bytes4",
          "name": "_commentId",
          "type": "bytes4"
        }
      ],
      "name": "getCommentLikedByUser",
      "outputs": [
        {
          "internalType": "bool",
          "name": "isLikeComment",
          "type": "bool"
        }
      ],
      "stateMutability": "view",
      "type": "function"
    },
    {
      "inputs": [
        {
          "internalType": "bytes4",
          "name": "_postId",
          "type": "bytes4"
        }
      ],
      "name": "getComments",
      "outputs": [
        {
          "internalType": "bytes4[]",
          "name": "",
          "type": "bytes4[]"
        }
      ],
      "stateMutability": "view",
      "type": "function"
    },
    {
      "inputs": [
        {
          "internalType": "bytes4",
          "name": "_postId",
          "type": "bytes4"
        }
      ],
      "name": "getPostDetails",
      "outputs": [
        {
          "internalType": "address",
          "name": "userAddress",
          "type": "address"
        },
        {
          "internalType": "bytes4",
          "name": "postId",
          "type": "bytes4"
        },
        {
          "internalType": "string",
          "name": "content",
          "type": "string"
        },
        {
          "internalType": "uint256",
          "name": "likes",
          "type": "uint256"
        },
        {
          "internalType": "uint256",
          "name": "postTime",
          "type": "uint256"
        },
        {
          "internalType": "uint256",
          "name": "lastUpdated",
          "type": "uint256"
        }
      ],
      "stateMutability": "view",
      "type": "function"
    },
    {
      "inputs": [
        {
          "internalType": "bytes4",
          "name": "_postId",
          "type": "bytes4"
        }
      ],
      "name": "getPostLikedByUser",
      "outputs": [
        {
          "internalType": "bool",
          "name": "islike",
          "type": "bool"
        }
      ],
      "stateMutability": "view",
      "type": "function"
    },
    {
      "inputs": [
        {
          "internalType": "bytes4",
          "name": "_commentId",
          "type": "bytes4"
        }
      ],
      "name": "getReplyOnCommment",
      "outputs": [
        {
          "internalType": "bytes4[]",
          "name": "",
          "type": "bytes4[]"
        }
      ],
      "stateMutability": "view",
      "type": "function"
    },
    {
      "inputs": [
        {
          "internalType": "bool",
          "name": "likeNComment",
          "type": "bool"
        }
      ],
      "name": "getUserLikePosts",
      "outputs": [
        {
          "internalType": "bytes4[]",
          "name": "",
          "type": "bytes4[]"
        }
      ],
      "stateMutability": "view",
      "type": "function"
    },
    {
      "inputs": [
        {
          "internalType": "address",
          "name": "user",
          "type": "address"
        }
      ],
      "name": "getUserPosts",
      "outputs": [
        {
          "internalType": "bytes4[]",
          "name": "",
          "type": "bytes4[]"
        }
      ],
      "stateMutability": "view",
      "type": "function"
    },
    {
      "inputs": [
        {
          "internalType": "bytes4",
          "name": "_postId",
          "type": "bytes4"
        }
      ],
      "name": "likePost",
      "outputs": [],
      "stateMutability": "nonpayable",
      "type": "function"
    },
    {
      "inputs": [
        {
          "internalType": "bytes4",
          "name": "_postId",
          "type": "bytes4"
        },
        {
          "internalType": "string",
          "name": "_content",
          "type": "string"
        }
      ],
      "name": "updatePost",
      "outputs": [],
      "stateMutability": "nonpayable",
      "type": "function"
    }
  ],
  "bytecode": "0x60806040523480156200001157600080fd5b5060405162005f0938038062005f098339818101604052810190620000379190620000e8565b806000806101000a81548173ffffffffffffffffffffffffffffffffffffffff021916908373ffffffffffffffffffffffffffffffffffffffff160217905550506200011a565b600080fd5b600073ffffffffffffffffffffffffffffffffffffffff82169050919050565b6000620000b08262000083565b9050919050565b620000c281620000a3565b8114620000ce57600080fd5b50565b600081519050620000e281620000b7565b92915050565b6000602082840312156200010157620001006200007e565b5b60006200011184828501620000d1565b91505092915050565b615ddf806200012a6000396000f3fe608060405234801561001057600080fd5b50600436106101165760003560e01c80636473177f116100a2578063c7303c6111610071578063c7303c6114610306578063d76af10114610322578063f3834ba31461033e578063f771e0c51461036e578063fc832d81146103a357610116565b80636473177f1461025a5780636c61f52f146102765780637f0b2791146102a65780639a2194a9146102d657610116565b806330561100116100e957806330561100146101a457806331c08e4f146101c25780633d0b4a28146101f25780634c7e805d146102225780635f51fd681461023e57610116565b8063041f209f1461011b5780630e6e0a2d14610150578063197278091461016c578063210e7b0914610188575b600080fd5b6101356004803603810190610130919061507c565b6103bf565b604051610147969594939291906151a2565b60405180910390f35b61016a6004803603810190610165919061507c565b6106dc565b005b6101866004803603810190610181919061507c565b610b10565b005b6101a2600480360381019061019d919061507c565b611175565b005b6101ac611c31565b6040516101b991906152c8565b60405180910390f35b6101dc60048036038101906101d7919061507c565b611da4565b6040516101e99190615305565b60405180910390f35b61020c6004803603810190610207919061507c565b611f23565b60405161021991906152c8565b60405180910390f35b61023c60048036038101906102379190615455565b612318565b005b61025860048036038101906102539190615455565b6128c7565b005b610274600480360381019061026f9190615455565b612c6c565b005b610290600480360381019061028b91906154dd565b6131db565b60405161029d91906152c8565b60405180910390f35b6102c060048036038101906102bb919061507c565b6133d7565b6040516102cd9190615305565b60405180910390f35b6102f060048036038101906102eb9190615536565b613556565b6040516102fd91906152c8565b60405180910390f35b610320600480360381019061031b9190615563565b613708565b005b61033c6004803603810190610337919061507c565b613b42565b005b6103586004803603810190610353919061507c565b6140fe565b60405161036591906152c8565b60405180910390f35b6103886004803603810190610383919061507c565b6142c2565b60405161039a969594939291906155ac565b60405180910390f35b6103bd60048036038101906103b8919061507c565b6147c6565b005b6000806000606060008060008054906101000a900473ffffffffffffffffffffffffffffffffffffffff1673ffffffffffffffffffffffffffffffffffffffff166325442f7b336040518263ffffffff1660e01b81526004016104229190615614565b602060405180830381865afa15801561043f573d6000803e3d6000fd5b505050506040513d601f19601f820116820180604052508101906104639190615644565b6104a2576040517f08c379a0000000000000000000000000000000000000000000000000000000008152600401610499906156bd565b60405180910390fd5b600060066000897bffffffffffffffffffffffffffffffffffffffffffffffffffffffff19167bffffffffffffffffffffffffffffffffffffffffffffffffffffffff191681526020019081526020016000206040518060c00160405290816000820160009054906101000a900473ffffffffffffffffffffffffffffffffffffffff1673ffffffffffffffffffffffffffffffffffffffff1673ffffffffffffffffffffffffffffffffffffffff1681526020016000820160149054906101000a900460e01b7bffffffffffffffffffffffffffffffffffffffffffffffffffffffff19167bffffffffffffffffffffffffffffffffffffffffffffffffffffffff191681526020016000820160189054906101000a900460e01b7bffffffffffffffffffffffffffffffffffffffffffffffffffffffff19167bffffffffffffffffffffffffffffffffffffffffffffffffffffffff191681526020016001820180546106109061570c565b80601f016020809104026020016040519081016040528092919081815260200182805461063c9061570c565b80156106895780601f1061065e57610100808354040283529160200191610689565b820191906000526020600020905b81548152906001019060200180831161066c57829003601f168201915b50505050508152602001600282015481526020016003820154815250509050806000015181602001518260400151836060015184608001518560a001519650965096509650965096505091939550919395565b60008054906101000a900473ffffffffffffffffffffffffffffffffffffffff1673ffffffffffffffffffffffffffffffffffffffff166325442f7b336040518263ffffffff1660e01b81526004016107359190615614565b602060405180830381865afa158015610752573d6000803e3d6000fd5b505050506040513d601f19601f820116820180604052508101906107769190615644565b6107b5576040517f08c379a00000000000000000000000000000000000000000000000000000000081526004016107ac906156bd565b60405180910390fd5b600960003373ffffffffffffffffffffffffffffffffffffffff1673ffffffffffffffffffffffffffffffffffffffff1681526020019081526020016000206000827bffffffffffffffffffffffffffffffffffffffffffffffffffffffff19167bffffffffffffffffffffffffffffffffffffffffffffffffffffffff1916815260200190815260200160002060009054906101000a900460ff1615610891576040517f08c379a000000000000000000000000000000000000000000000000000000000815260040161088890615789565b60405180910390fd5b6001600960003373ffffffffffffffffffffffffffffffffffffffff1673ffffffffffffffffffffffffffffffffffffffff1681526020019081526020016000206000837bffffffffffffffffffffffffffffffffffffffffffffffffffffffff19167bffffffffffffffffffffffffffffffffffffffffffffffffffffffff1916815260200190815260200160002060006101000a81548160ff021916908315150217905550600060066000837bffffffffffffffffffffffffffffffffffffffffffffffffffffffff19167bffffffffffffffffffffffffffffffffffffffffffffffffffffffff19168152602001908152602001600020905060018160020160008282546109a291906157d8565b925050819055506000600860003373ffffffffffffffffffffffffffffffffffffffff1673ffffffffffffffffffffffffffffffffffffffff168152602001908152602001600020805490509050600860003373ffffffffffffffffffffffffffffffffffffffff1673ffffffffffffffffffffffffffffffffffffffff1681526020019081526020016000208390806001815401808255809150506001900390600052602060002090600891828204019190066004029091909190916101000a81548163ffffffff021916908360e01c021790555080600d60003373ffffffffffffffffffffffffffffffffffffffff1673ffffffffffffffffffffffffffffffffffffffff1681526020019081526020016000206000857bffffffffffffffffffffffffffffffffffffffffffffffffffffffff19167bffffffffffffffffffffffffffffffffffffffffffffffffffffffff1916815260200190815260200160002081905550505050565b60008054906101000a900473ffffffffffffffffffffffffffffffffffffffff1673ffffffffffffffffffffffffffffffffffffffff166325442f7b336040518263ffffffff1660e01b8152600401610b699190615614565b602060405180830381865afa158015610b86573d6000803e3d6000fd5b505050506040513d601f19601f82011682018060405250810190610baa9190615644565b610be9576040517f08c379a0000000000000000000000000000000000000000000000000000000008152600401610be0906156bd565b60405180910390fd5b80600060036000837bffffffffffffffffffffffffffffffffffffffffffffffffffffffff19167bffffffffffffffffffffffffffffffffffffffffffffffffffffffff191681526020019081526020016000206040518060c00160405290816000820160009054906101000a900473ffffffffffffffffffffffffffffffffffffffff1673ffffffffffffffffffffffffffffffffffffffff1673ffffffffffffffffffffffffffffffffffffffff1681526020016000820160149054906101000a900460e01b7bffffffffffffffffffffffffffffffffffffffffffffffffffffffff19167bffffffffffffffffffffffffffffffffffffffffffffffffffffffff19168152602001600182018054610d039061570c565b80601f0160208091040260200160405190810160405280929190818152602001828054610d2f9061570c565b8015610d7c5780601f10610d5157610100808354040283529160200191610d7c565b820191906000526020600020905b815481529060010190602001808311610d5f57829003601f168201915b5050505050815260200160028201548152602001600382015481526020016004820154815250509050600073ffffffffffffffffffffffffffffffffffffffff16816000015173ffffffffffffffffffffffffffffffffffffffff1603610e18576040517f08c379a0000000000000000000000000000000000000000000000000000000008152600401610e0f90615858565b60405180910390fd5b600560003373ffffffffffffffffffffffffffffffffffffffff1673ffffffffffffffffffffffffffffffffffffffff1681526020019081526020016000206000847bffffffffffffffffffffffffffffffffffffffffffffffffffffffff19167bffffffffffffffffffffffffffffffffffffffffffffffffffffffff1916815260200190815260200160002060009054906101000a900460ff1615610ef4576040517f08c379a0000000000000000000000000000000000000000000000000000000008152600401610eeb90615789565b60405180910390fd5b6001600560003373ffffffffffffffffffffffffffffffffffffffff1673ffffffffffffffffffffffffffffffffffffffff1681526020019081526020016000206000857bffffffffffffffffffffffffffffffffffffffffffffffffffffffff19167bffffffffffffffffffffffffffffffffffffffffffffffffffffffff1916815260200190815260200160002060006101000a81548160ff021916908315150217905550600060036000857bffffffffffffffffffffffffffffffffffffffffffffffffffffffff19167bffffffffffffffffffffffffffffffffffffffffffffffffffffffff191681526020019081526020016000209050600181600201600082825461100591906157d8565b925050819055506000600460003373ffffffffffffffffffffffffffffffffffffffff1673ffffffffffffffffffffffffffffffffffffffff168152602001908152602001600020805490509050600460003373ffffffffffffffffffffffffffffffffffffffff1673ffffffffffffffffffffffffffffffffffffffff1681526020019081526020016000208590806001815401808255809150506001900390600052602060002090600891828204019190066004029091909190916101000a81548163ffffffff021916908360e01c021790555080600c60003373ffffffffffffffffffffffffffffffffffffffff1673ffffffffffffffffffffffffffffffffffffffff1681526020019081526020016000206000877bffffffffffffffffffffffffffffffffffffffffffffffffffffffff19167bffffffffffffffffffffffffffffffffffffffffffffffffffffffff19168152602001908152602001600020819055505050505050565b60008054906101000a900473ffffffffffffffffffffffffffffffffffffffff1673ffffffffffffffffffffffffffffffffffffffff166325442f7b336040518263ffffffff1660e01b81526004016111ce9190615614565b602060405180830381865afa1580156111eb573d6000803e3d6000fd5b505050506040513d601f19601f8201168201806040525081019061120f9190615644565b61124e576040517f08c379a0000000000000000000000000000000000000000000000000000000008152600401611245906156bd565b60405180910390fd5b80600060036000837bffffffffffffffffffffffffffffffffffffffffffffffffffffffff19167bffffffffffffffffffffffffffffffffffffffffffffffffffffffff191681526020019081526020016000206040518060c00160405290816000820160009054906101000a900473ffffffffffffffffffffffffffffffffffffffff1673ffffffffffffffffffffffffffffffffffffffff1673ffffffffffffffffffffffffffffffffffffffff1681526020016000820160149054906101000a900460e01b7bffffffffffffffffffffffffffffffffffffffffffffffffffffffff19167bffffffffffffffffffffffffffffffffffffffffffffffffffffffff191681526020016001820180546113689061570c565b80601f01602080910402602001604051908101604052809291908181526020018280546113949061570c565b80156113e15780601f106113b6576101008083540402835291602001916113e1565b820191906000526020600020905b8154815290600101906020018083116113c457829003601f168201915b5050505050815260200160028201548152602001600382015481526020016004820154815250509050600073ffffffffffffffffffffffffffffffffffffffff16816000015173ffffffffffffffffffffffffffffffffffffffff160361147d576040517f08c379a000000000000000000000000000000000000000000000000000000000815260040161147490615858565b60405180910390fd5b82600060036000837bffffffffffffffffffffffffffffffffffffffffffffffffffffffff19167bffffffffffffffffffffffffffffffffffffffffffffffffffffffff191681526020019081526020016000206040518060c00160405290816000820160009054906101000a900473ffffffffffffffffffffffffffffffffffffffff1673ffffffffffffffffffffffffffffffffffffffff1673ffffffffffffffffffffffffffffffffffffffff1681526020016000820160149054906101000a900460e01b7bffffffffffffffffffffffffffffffffffffffffffffffffffffffff19167bffffffffffffffffffffffffffffffffffffffffffffffffffffffff191681526020016001820180546115979061570c565b80601f01602080910402602001604051908101604052809291908181526020018280546115c39061570c565b80156116105780601f106115e557610100808354040283529160200191611610565b820191906000526020600020905b8154815290600101906020018083116115f357829003601f168201915b50505050508152602001600282015481526020016003820154815260200160048201548152505090503373ffffffffffffffffffffffffffffffffffffffff16816000015173ffffffffffffffffffffffffffffffffffffffff16146116ab576040517f08c379a00000000000000000000000000000000000000000000000000000000081526004016116a2906158c4565b60405180910390fd5b600560003373ffffffffffffffffffffffffffffffffffffffff1673ffffffffffffffffffffffffffffffffffffffff1681526020019081526020016000206000867bffffffffffffffffffffffffffffffffffffffffffffffffffffffff19167bffffffffffffffffffffffffffffffffffffffffffffffffffffffff1916815260200190815260200160002060009054906101000a900460ff161561175657611755856147c6565b5b6000600a6000877bffffffffffffffffffffffffffffffffffffffffffffffffffffffff19167bffffffffffffffffffffffffffffffffffffffffffffffffffffffff19168152602001908152602001600020549050600180805490506117bd91906158e4565b81146118aa57600060018080805490506117d791906158e4565b815481106117e8576117e7615918565b5b90600052602060002090600891828204019190066004029054906101000a900460e01b9050806001838154811061182257611821615918565b5b90600052602060002090600891828204019190066004026101000a81548163ffffffff021916908360e01c021790555081600a6000837bffffffffffffffffffffffffffffffffffffffffffffffffffffffff19167bffffffffffffffffffffffffffffffffffffffffffffffffffffffff1916815260200190815260200160002081905550505b60018054806118bc576118bb615947565b5b60019003818190600052602060002090600891828204019190066004026101000a81549063ffffffff021916905590556000600260003373ffffffffffffffffffffffffffffffffffffffff1673ffffffffffffffffffffffffffffffffffffffff16815260200190815260200160002090506000600b6000897bffffffffffffffffffffffffffffffffffffffffffffffffffffffff19167bffffffffffffffffffffffffffffffffffffffffffffffffffffffff191681526020019081526020016000205490506001828054905061199691906158e4565b8114611a8257600082600184805490506119b091906158e4565b815481106119c1576119c0615918565b5b90600052602060002090600891828204019190066004029054906101000a900460e01b9050808383815481106119fa576119f9615918565b5b90600052602060002090600891828204019190066004026101000a81548163ffffffff021916908360e01c021790555081600b6000837bffffffffffffffffffffffffffffffffffffffffffffffffffffffff19167bffffffffffffffffffffffffffffffffffffffffffffffffffffffff1916815260200190815260200160002081905550505b81805480611a9357611a92615947565b5b60019003818190600052602060002090600891828204019190066004026101000a81549063ffffffff02191690559055600a6000897bffffffffffffffffffffffffffffffffffffffffffffffffffffffff19167bffffffffffffffffffffffffffffffffffffffffffffffffffffffff1916815260200190815260200160002060009055600b6000897bffffffffffffffffffffffffffffffffffffffffffffffffffffffff19167bffffffffffffffffffffffffffffffffffffffffffffffffffffffff191681526020019081526020016000206000905560036000897bffffffffffffffffffffffffffffffffffffffffffffffffffffffff19167bffffffffffffffffffffffffffffffffffffffffffffffffffffffff19168152602001908152602001600020600080820160006101000a81549073ffffffffffffffffffffffffffffffffffffffff02191690556000820160146101000a81549063ffffffff0219169055600182016000611c0d9190614fb3565b60028201600090556003820160009055600482016000905550505050505050505050565b606060008054906101000a900473ffffffffffffffffffffffffffffffffffffffff1673ffffffffffffffffffffffffffffffffffffffff166325442f7b336040518263ffffffff1660e01b8152600401611c8c9190615614565b602060405180830381865afa158015611ca9573d6000803e3d6000fd5b505050506040513d601f19601f82011682018060405250810190611ccd9190615644565b611d0c576040517f08c379a0000000000000000000000000000000000000000000000000000000008152600401611d03906156bd565b60405180910390fd5b6001805480602002602001604051908101604052809291908181526020018280548015611d9a57602002820191906000526020600020906000905b82829054906101000a900460e01b7bffffffffffffffffffffffffffffffffffffffffffffffffffffffff191681526020019060040190602082600301049283019260010382029150808411611d475790505b5050505050905090565b60008060009054906101000a900473ffffffffffffffffffffffffffffffffffffffff1673ffffffffffffffffffffffffffffffffffffffff166325442f7b336040518263ffffffff1660e01b8152600401611e009190615614565b602060405180830381865afa158015611e1d573d6000803e3d6000fd5b505050506040513d601f19601f82011682018060405250810190611e419190615644565b611e80576040517f08c379a0000000000000000000000000000000000000000000000000000000008152600401611e77906156bd565b60405180910390fd5b600960003373ffffffffffffffffffffffffffffffffffffffff1673ffffffffffffffffffffffffffffffffffffffff1681526020019081526020016000206000837bffffffffffffffffffffffffffffffffffffffffffffffffffffffff19167bffffffffffffffffffffffffffffffffffffffffffffffffffffffff1916815260200190815260200160002060009054906101000a900460ff169050919050565b606060008054906101000a900473ffffffffffffffffffffffffffffffffffffffff1673ffffffffffffffffffffffffffffffffffffffff166325442f7b336040518263ffffffff1660e01b8152600401611f7e9190615614565b602060405180830381865afa158015611f9b573d6000803e3d6000fd5b505050506040513d601f19601f82011682018060405250810190611fbf9190615644565b611ffe576040517f08c379a0000000000000000000000000000000000000000000000000000000008152600401611ff5906156bd565b60405180910390fd5b81600060036000837bffffffffffffffffffffffffffffffffffffffffffffffffffffffff19167bffffffffffffffffffffffffffffffffffffffffffffffffffffffff191681526020019081526020016000206040518060c00160405290816000820160009054906101000a900473ffffffffffffffffffffffffffffffffffffffff1673ffffffffffffffffffffffffffffffffffffffff1673ffffffffffffffffffffffffffffffffffffffff1681526020016000820160149054906101000a900460e01b7bffffffffffffffffffffffffffffffffffffffffffffffffffffffff19167bffffffffffffffffffffffffffffffffffffffffffffffffffffffff191681526020016001820180546121189061570c565b80601f01602080910402602001604051908101604052809291908181526020018280546121449061570c565b80156121915780601f1061216657610100808354040283529160200191612191565b820191906000526020600020905b81548152906001019060200180831161217457829003601f168201915b5050505050815260200160028201548152602001600382015481526020016004820154815250509050600073ffffffffffffffffffffffffffffffffffffffff16816000015173ffffffffffffffffffffffffffffffffffffffff160361222d576040517f08c379a000000000000000000000000000000000000000000000000000000000815260040161222490615858565b60405180910390fd5b60076000857bffffffffffffffffffffffffffffffffffffffffffffffffffffffff19167bffffffffffffffffffffffffffffffffffffffffffffffffffffffff1916815260200190815260200160002080548060200260200160405190810160405280929190818152602001828054801561230a57602002820191906000526020600020906000905b82829054906101000a900460e01b7bffffffffffffffffffffffffffffffffffffffffffffffffffffffff1916815260200190600401906020826003010492830192600103820291508084116122b75790505b505050505092505050919050565b60008054906101000a900473ffffffffffffffffffffffffffffffffffffffff1673ffffffffffffffffffffffffffffffffffffffff166325442f7b336040518263ffffffff1660e01b81526004016123719190615614565b602060405180830381865afa15801561238e573d6000803e3d6000fd5b505050506040513d601f19601f820116820180604052508101906123b29190615644565b6123f1576040517f08c379a00000000000000000000000000000000000000000000000000000000081526004016123e8906156bd565b60405180910390fd5b81600060036000837bffffffffffffffffffffffffffffffffffffffffffffffffffffffff19167bffffffffffffffffffffffffffffffffffffffffffffffffffffffff191681526020019081526020016000206040518060c00160405290816000820160009054906101000a900473ffffffffffffffffffffffffffffffffffffffff1673ffffffffffffffffffffffffffffffffffffffff1673ffffffffffffffffffffffffffffffffffffffff1681526020016000820160149054906101000a900460e01b7bffffffffffffffffffffffffffffffffffffffffffffffffffffffff19167bffffffffffffffffffffffffffffffffffffffffffffffffffffffff1916815260200160018201805461250b9061570c565b80601f01602080910402602001604051908101604052809291908181526020018280546125379061570c565b80156125845780601f1061255957610100808354040283529160200191612584565b820191906000526020600020905b81548152906001019060200180831161256757829003601f168201915b5050505050815260200160028201548152602001600382015481526020016004820154815250509050600073ffffffffffffffffffffffffffffffffffffffff16816000015173ffffffffffffffffffffffffffffffffffffffff1603612620576040517f08c379a000000000000000000000000000000000000000000000000000000000815260040161261790615858565b60405180910390fd5b83600060036000837bffffffffffffffffffffffffffffffffffffffffffffffffffffffff19167bffffffffffffffffffffffffffffffffffffffffffffffffffffffff191681526020019081526020016000206040518060c00160405290816000820160009054906101000a900473ffffffffffffffffffffffffffffffffffffffff1673ffffffffffffffffffffffffffffffffffffffff1673ffffffffffffffffffffffffffffffffffffffff1681526020016000820160149054906101000a900460e01b7bffffffffffffffffffffffffffffffffffffffffffffffffffffffff19167bffffffffffffffffffffffffffffffffffffffffffffffffffffffff1916815260200160018201805461273a9061570c565b80601f01602080910402602001604051908101604052809291908181526020018280546127669061570c565b80156127b35780601f10612788576101008083540402835291602001916127b3565b820191906000526020600020905b81548152906001019060200180831161279657829003601f168201915b50505050508152602001600282015481526020016003820154815260200160048201548152505090503373ffffffffffffffffffffffffffffffffffffffff16816000015173ffffffffffffffffffffffffffffffffffffffff161461284e576040517f08c379a0000000000000000000000000000000000000000000000000000000008152600401612845906158c4565b60405180910390fd5b600060036000887bffffffffffffffffffffffffffffffffffffffffffffffffffffffff19167bffffffffffffffffffffffffffffffffffffffffffffffffffffffff191681526020019081526020016000209050858160010190816128b49190615b22565b5042816004018190555050505050505050565b60008054906101000a900473ffffffffffffffffffffffffffffffffffffffff1673ffffffffffffffffffffffffffffffffffffffff166325442f7b336040518263ffffffff1660e01b81526004016129209190615614565b602060405180830381865afa15801561293d573d6000803e3d6000fd5b505050506040513d601f19601f820116820180604052508101906129619190615644565b6129a0576040517f08c379a0000000000000000000000000000000000000000000000000000000008152600401612997906156bd565b60405180910390fd5b600060066000847bffffffffffffffffffffffffffffffffffffffffffffffffffffffff19167bffffffffffffffffffffffffffffffffffffffffffffffffffffffff1916815260200190815260200160002060000160149054906101000a900460e01b9050600033828442604051602001612a1f9493929190615cba565b60405160208183030381529060405280519060200120905060006040518060c001604052803373ffffffffffffffffffffffffffffffffffffffff168152602001867bffffffffffffffffffffffffffffffffffffffffffffffffffffffff19168152602001837bffffffffffffffffffffffffffffffffffffffffffffffffffffffff19168152602001858152602001600081526020014281525090508060066000847bffffffffffffffffffffffffffffffffffffffffffffffffffffffff19167bffffffffffffffffffffffffffffffffffffffffffffffffffffffff1916815260200190815260200160002060008201518160000160006101000a81548173ffffffffffffffffffffffffffffffffffffffff021916908373ffffffffffffffffffffffffffffffffffffffff16021790555060208201518160000160146101000a81548163ffffffff021916908360e01c021790555060408201518160000160186101000a81548163ffffffff021916908360e01c02179055506060820151816001019081612bb39190615b22565b506080820151816002015560a0820151816003015590505060076000867bffffffffffffffffffffffffffffffffffffffffffffffffffffffff19167bffffffffffffffffffffffffffffffffffffffffffffffffffffffff191681526020019081526020016000208290806001815401808255809150506001900390600052602060002090600891828204019190066004029091909190916101000a81548163ffffffff021916908360e01c02179055505050505050565b60008054906101000a900473ffffffffffffffffffffffffffffffffffffffff1673ffffffffffffffffffffffffffffffffffffffff166325442f7b336040518263ffffffff1660e01b8152600401612cc59190615614565b602060405180830381865afa158015612ce2573d6000803e3d6000fd5b505050506040513d601f19601f82011682018060405250810190612d069190615644565b612d45576040517f08c379a0000000000000000000000000000000000000000000000000000000008152600401612d3c906156bd565b60405180910390fd5b81600060036000837bffffffffffffffffffffffffffffffffffffffffffffffffffffffff19167bffffffffffffffffffffffffffffffffffffffffffffffffffffffff191681526020019081526020016000206040518060c00160405290816000820160009054906101000a900473ffffffffffffffffffffffffffffffffffffffff1673ffffffffffffffffffffffffffffffffffffffff1673ffffffffffffffffffffffffffffffffffffffff1681526020016000820160149054906101000a900460e01b7bffffffffffffffffffffffffffffffffffffffffffffffffffffffff19167bffffffffffffffffffffffffffffffffffffffffffffffffffffffff19168152602001600182018054612e5f9061570c565b80601f0160208091040260200160405190810160405280929190818152602001828054612e8b9061570c565b8015612ed85780601f10612ead57610100808354040283529160200191612ed8565b820191906000526020600020905b815481529060010190602001808311612ebb57829003601f168201915b5050505050815260200160028201548152602001600382015481526020016004820154815250509050600073ffffffffffffffffffffffffffffffffffffffff16816000015173ffffffffffffffffffffffffffffffffffffffff1603612f74576040517f08c379a0000000000000000000000000000000000000000000000000000000008152600401612f6b90615858565b60405180910390fd5b600033858542604051602001612f8d9493929190615cba565b60405160208183030381529060405280519060200120905060006040518060c001604052803373ffffffffffffffffffffffffffffffffffffffff168152602001877bffffffffffffffffffffffffffffffffffffffffffffffffffffffff19168152602001837bffffffffffffffffffffffffffffffffffffffffffffffffffffffff191681526020018681526020016000815260200142815250905060076000877bffffffffffffffffffffffffffffffffffffffffffffffffffffffff19167bffffffffffffffffffffffffffffffffffffffffffffffffffffffff191681526020019081526020016000208290806001815401808255809150506001900390600052602060002090600891828204019190066004029091909190916101000a81548163ffffffff021916908360e01c02179055508060066000847bffffffffffffffffffffffffffffffffffffffffffffffffffffffff19167bffffffffffffffffffffffffffffffffffffffffffffffffffffffff1916815260200190815260200160002060008201518160000160006101000a81548173ffffffffffffffffffffffffffffffffffffffff021916908373ffffffffffffffffffffffffffffffffffffffff16021790555060208201518160000160146101000a81548163ffffffff021916908360e01c021790555060408201518160000160186101000a81548163ffffffff021916908360e01c021790555060608201518160010190816131bb9190615b22565b506080820151816002015560a08201518160030155905050505050505050565b606060008054906101000a900473ffffffffffffffffffffffffffffffffffffffff1673ffffffffffffffffffffffffffffffffffffffff166325442f7b336040518263ffffffff1660e01b81526004016132369190615614565b602060405180830381865afa158015613253573d6000803e3d6000fd5b505050506040513d601f19601f820116820180604052508101906132779190615644565b6132b6576040517f08c379a00000000000000000000000000000000000000000000000000000000081526004016132ad906156bd565b60405180910390fd5b816132ff57600860003373ffffffffffffffffffffffffffffffffffffffff1673ffffffffffffffffffffffffffffffffffffffff16815260200190815260200160002061333f565b600460003373ffffffffffffffffffffffffffffffffffffffff1673ffffffffffffffffffffffffffffffffffffffff1681526020019081526020016000205b8054806020026020016040519081016040528092919081815260200182805480156133cb57602002820191906000526020600020906000905b82829054906101000a900460e01b7bffffffffffffffffffffffffffffffffffffffffffffffffffffffff1916815260200190600401906020826003010492830192600103820291508084116133785790505b50505050509050919050565b60008060009054906101000a900473ffffffffffffffffffffffffffffffffffffffff1673ffffffffffffffffffffffffffffffffffffffff166325442f7b336040518263ffffffff1660e01b81526004016134339190615614565b602060405180830381865afa158015613450573d6000803e3d6000fd5b505050506040513d601f19601f820116820180604052508101906134749190615644565b6134b3576040517f08c379a00000000000000000000000000000000000000000000000000000000081526004016134aa906156bd565b60405180910390fd5b600560003373ffffffffffffffffffffffffffffffffffffffff1673ffffffffffffffffffffffffffffffffffffffff1681526020019081526020016000206000837bffffffffffffffffffffffffffffffffffffffffffffffffffffffff19167bffffffffffffffffffffffffffffffffffffffffffffffffffffffff1916815260200190815260200160002060009054906101000a900460ff169050919050565b606060008054906101000a900473ffffffffffffffffffffffffffffffffffffffff1673ffffffffffffffffffffffffffffffffffffffff166325442f7b336040518263ffffffff1660e01b81526004016135b19190615614565b602060405180830381865afa1580156135ce573d6000803e3d6000fd5b505050506040513d601f19601f820116820180604052508101906135f29190615644565b613631576040517f08c379a0000000000000000000000000000000000000000000000000000000008152600401613628906156bd565b60405180910390fd5b600260008373ffffffffffffffffffffffffffffffffffffffff1673ffffffffffffffffffffffffffffffffffffffff1681526020019081526020016000208054806020026020016040519081016040528092919081815260200182805480156136fc57602002820191906000526020600020906000905b82829054906101000a900460e01b7bffffffffffffffffffffffffffffffffffffffffffffffffffffffff1916815260200190600401906020826003010492830192600103820291508084116136a95790505b50505050509050919050565b60008054906101000a900473ffffffffffffffffffffffffffffffffffffffff1673ffffffffffffffffffffffffffffffffffffffff166325442f7b336040518263ffffffff1660e01b81526004016137619190615614565b602060405180830381865afa15801561377e573d6000803e3d6000fd5b505050506040513d601f19601f820116820180604052508101906137a29190615644565b6137e1576040517f08c379a00000000000000000000000000000000000000000000000000000000081526004016137d8906156bd565b60405180910390fd5b60003382426040516020016137f893929190615d04565b60405160208183030381529060405280519060200120905060006040518060c001604052803373ffffffffffffffffffffffffffffffffffffffff168152602001837bffffffffffffffffffffffffffffffffffffffffffffffffffffffff1916815260200184815260200160008152602001428152602001428152509050600060018054905090506000600260003373ffffffffffffffffffffffffffffffffffffffff1673ffffffffffffffffffffffffffffffffffffffff16815260200190815260200160002080549050905060018490806001815401808255809150506001900390600052602060002090600891828204019190066004029091909190916101000a81548163ffffffff021916908360e01c0217905550600260003373ffffffffffffffffffffffffffffffffffffffff1673ffffffffffffffffffffffffffffffffffffffff1681526020019081526020016000208490806001815401808255809150506001900390600052602060002090600891828204019190066004029091909190916101000a81548163ffffffff021916908360e01c021790555081600a6000867bffffffffffffffffffffffffffffffffffffffffffffffffffffffff19167bffffffffffffffffffffffffffffffffffffffffffffffffffffffff191681526020019081526020016000208190555080600b6000867bffffffffffffffffffffffffffffffffffffffffffffffffffffffff19167bffffffffffffffffffffffffffffffffffffffffffffffffffffffff19168152602001908152602001600020819055508260036000867bffffffffffffffffffffffffffffffffffffffffffffffffffffffff19167bffffffffffffffffffffffffffffffffffffffffffffffffffffffff1916815260200190815260200160002060008201518160000160006101000a81548173ffffffffffffffffffffffffffffffffffffffff021916908373ffffffffffffffffffffffffffffffffffffffff16021790555060208201518160000160146101000a81548163ffffffff021916908360e01c02179055506040820151816001019081613b199190615b22565b50606082015181600201556080820151816003015560a082015181600401559050505050505050565b60008054906101000a900473ffffffffffffffffffffffffffffffffffffffff1673ffffffffffffffffffffffffffffffffffffffff166325442f7b336040518263ffffffff1660e01b8152600401613b9b9190615614565b602060405180830381865afa158015613bb8573d6000803e3d6000fd5b505050506040513d601f19601f82011682018060405250810190613bdc9190615644565b613c1b576040517f08c379a0000000000000000000000000000000000000000000000000000000008152600401613c12906156bd565b60405180910390fd5b60011515600960003373ffffffffffffffffffffffffffffffffffffffff1673ffffffffffffffffffffffffffffffffffffffff1681526020019081526020016000206000837bffffffffffffffffffffffffffffffffffffffffffffffffffffffff19167bffffffffffffffffffffffffffffffffffffffffffffffffffffffff1916815260200190815260200160002060009054906101000a900460ff16151514613cfd576040517f08c379a0000000000000000000000000000000000000000000000000000000008152600401613cf490615d89565b60405180910390fd5b6000600960003373ffffffffffffffffffffffffffffffffffffffff1673ffffffffffffffffffffffffffffffffffffffff1681526020019081526020016000206000837bffffffffffffffffffffffffffffffffffffffffffffffffffffffff19167bffffffffffffffffffffffffffffffffffffffffffffffffffffffff1916815260200190815260200160002060006101000a81548160ff021916908315150217905550600060066000837bffffffffffffffffffffffffffffffffffffffffffffffffffffffff19167bffffffffffffffffffffffffffffffffffffffffffffffffffffffff1916815260200190815260200160002090506001816002016000828254613e0e91906158e4565b925050819055506000600860003373ffffffffffffffffffffffffffffffffffffffff1673ffffffffffffffffffffffffffffffffffffffff16815260200190815260200160002090506000600d60003373ffffffffffffffffffffffffffffffffffffffff1673ffffffffffffffffffffffffffffffffffffffff1681526020019081526020016000206000857bffffffffffffffffffffffffffffffffffffffffffffffffffffffff19167bffffffffffffffffffffffffffffffffffffffffffffffffffffffff1916815260200190815260200160002054905060018280549050613efc91906158e4565b81146140255760008260018480549050613f1691906158e4565b81548110613f2757613f26615918565b5b90600052602060002090600891828204019190066004029054906101000a900460e01b905080838381548110613f6057613f5f615918565b5b90600052602060002090600891828204019190066004026101000a81548163ffffffff021916908360e01c021790555081600d60003373ffffffffffffffffffffffffffffffffffffffff1673ffffffffffffffffffffffffffffffffffffffff1681526020019081526020016000206000837bffffffffffffffffffffffffffffffffffffffffffffffffffffffff19167bffffffffffffffffffffffffffffffffffffffffffffffffffffffff1916815260200190815260200160002081905550505b8180548061403657614035615947565b5b60019003818190600052602060002090600891828204019190066004026101000a81549063ffffffff02191690559055600d60003373ffffffffffffffffffffffffffffffffffffffff1673ffffffffffffffffffffffffffffffffffffffff1681526020019081526020016000206000857bffffffffffffffffffffffffffffffffffffffffffffffffffffffff19167bffffffffffffffffffffffffffffffffffffffffffffffffffffffff191681526020019081526020016000206000905550505050565b606060008054906101000a900473ffffffffffffffffffffffffffffffffffffffff1673ffffffffffffffffffffffffffffffffffffffff166325442f7b336040518263ffffffff1660e01b81526004016141599190615614565b602060405180830381865afa158015614176573d6000803e3d6000fd5b505050506040513d601f19601f8201168201806040525081019061419a9190615644565b6141d9576040517f08c379a00000000000000000000000000000000000000000000000000000000081526004016141d0906156bd565b60405180910390fd5b60076000837bffffffffffffffffffffffffffffffffffffffffffffffffffffffff19167bffffffffffffffffffffffffffffffffffffffffffffffffffffffff191681526020019081526020016000208054806020026020016040519081016040528092919081815260200182805480156142b657602002820191906000526020600020906000905b82829054906101000a900460e01b7bffffffffffffffffffffffffffffffffffffffffffffffffffffffff1916815260200190600401906020826003010492830192600103820291508084116142635790505b50505050509050919050565b600080606060008060008060009054906101000a900473ffffffffffffffffffffffffffffffffffffffff1673ffffffffffffffffffffffffffffffffffffffff166325442f7b336040518263ffffffff1660e01b81526004016143269190615614565b602060405180830381865afa158015614343573d6000803e3d6000fd5b505050506040513d601f19601f820116820180604052508101906143679190615644565b6143a6576040517f08c379a000000000000000000000000000000000000000000000000000000000815260040161439d906156bd565b60405180910390fd5b86600060036000837bffffffffffffffffffffffffffffffffffffffffffffffffffffffff19167bffffffffffffffffffffffffffffffffffffffffffffffffffffffff191681526020019081526020016000206040518060c00160405290816000820160009054906101000a900473ffffffffffffffffffffffffffffffffffffffff1673ffffffffffffffffffffffffffffffffffffffff1673ffffffffffffffffffffffffffffffffffffffff1681526020016000820160149054906101000a900460e01b7bffffffffffffffffffffffffffffffffffffffffffffffffffffffff19167bffffffffffffffffffffffffffffffffffffffffffffffffffffffff191681526020016001820180546144c09061570c565b80601f01602080910402602001604051908101604052809291908181526020018280546144ec9061570c565b80156145395780601f1061450e57610100808354040283529160200191614539565b820191906000526020600020905b81548152906001019060200180831161451c57829003601f168201915b5050505050815260200160028201548152602001600382015481526020016004820154815250509050600073ffffffffffffffffffffffffffffffffffffffff16816000015173ffffffffffffffffffffffffffffffffffffffff16036145d5576040517f08c379a00000000000000000000000000000000000000000000000000000000081526004016145cc90615858565b60405180910390fd5b6000600360008b7bffffffffffffffffffffffffffffffffffffffffffffffffffffffff19167bffffffffffffffffffffffffffffffffffffffffffffffffffffffff191681526020019081526020016000206040518060c00160405290816000820160009054906101000a900473ffffffffffffffffffffffffffffffffffffffff1673ffffffffffffffffffffffffffffffffffffffff1673ffffffffffffffffffffffffffffffffffffffff1681526020016000820160149054906101000a900460e01b7bffffffffffffffffffffffffffffffffffffffffffffffffffffffff19167bffffffffffffffffffffffffffffffffffffffffffffffffffffffff191681526020016001820180546146ee9061570c565b80601f016020809104026020016040519081016040528092919081815260200182805461471a9061570c565b80156147675780601f1061473c57610100808354040283529160200191614767565b820191906000526020600020905b81548152906001019060200180831161474a57829003601f168201915b5050505050815260200160028201548152602001600382015481526020016004820154815250509050806000015181602001518260400151836060015184608001518560a0015198509850985098509850985050505091939550919395565b60008054906101000a900473ffffffffffffffffffffffffffffffffffffffff1673ffffffffffffffffffffffffffffffffffffffff166325442f7b336040518263ffffffff1660e01b815260040161481f9190615614565b602060405180830381865afa15801561483c573d6000803e3d6000fd5b505050506040513d601f19601f820116820180604052508101906148609190615644565b61489f576040517f08c379a0000000000000000000000000000000000000000000000000000000008152600401614896906156bd565b60405180910390fd5b80600060036000837bffffffffffffffffffffffffffffffffffffffffffffffffffffffff19167bffffffffffffffffffffffffffffffffffffffffffffffffffffffff191681526020019081526020016000206040518060c00160405290816000820160009054906101000a900473ffffffffffffffffffffffffffffffffffffffff1673ffffffffffffffffffffffffffffffffffffffff1673ffffffffffffffffffffffffffffffffffffffff1681526020016000820160149054906101000a900460e01b7bffffffffffffffffffffffffffffffffffffffffffffffffffffffff19167bffffffffffffffffffffffffffffffffffffffffffffffffffffffff191681526020016001820180546149b99061570c565b80601f01602080910402602001604051908101604052809291908181526020018280546149e59061570c565b8015614a325780601f10614a0757610100808354040283529160200191614a32565b820191906000526020600020905b815481529060010190602001808311614a1557829003601f168201915b5050505050815260200160028201548152602001600382015481526020016004820154815250509050600073ffffffffffffffffffffffffffffffffffffffff16816000015173ffffffffffffffffffffffffffffffffffffffff1603614ace576040517f08c379a0000000000000000000000000000000000000000000000000000000008152600401614ac590615858565b60405180910390fd5b60011515600560003373ffffffffffffffffffffffffffffffffffffffff1673ffffffffffffffffffffffffffffffffffffffff1681526020019081526020016000206000857bffffffffffffffffffffffffffffffffffffffffffffffffffffffff19167bffffffffffffffffffffffffffffffffffffffffffffffffffffffff1916815260200190815260200160002060009054906101000a900460ff16151514614bb0576040517f08c379a0000000000000000000000000000000000000000000000000000000008152600401614ba790615d89565b60405180910390fd5b6000600560003373ffffffffffffffffffffffffffffffffffffffff1673ffffffffffffffffffffffffffffffffffffffff1681526020019081526020016000206000857bffffffffffffffffffffffffffffffffffffffffffffffffffffffff19167bffffffffffffffffffffffffffffffffffffffffffffffffffffffff1916815260200190815260200160002060006101000a81548160ff021916908315150217905550600060036000857bffffffffffffffffffffffffffffffffffffffffffffffffffffffff19167bffffffffffffffffffffffffffffffffffffffffffffffffffffffff1916815260200190815260200160002090506001816002016000828254614cc191906158e4565b925050819055506000600460003373ffffffffffffffffffffffffffffffffffffffff1673ffffffffffffffffffffffffffffffffffffffff16815260200190815260200160002090506000600c60003373ffffffffffffffffffffffffffffffffffffffff1673ffffffffffffffffffffffffffffffffffffffff1681526020019081526020016000206000877bffffffffffffffffffffffffffffffffffffffffffffffffffffffff19167bffffffffffffffffffffffffffffffffffffffffffffffffffffffff1916815260200190815260200160002054905060018280549050614daf91906158e4565b8114614ed85760008260018480549050614dc991906158e4565b81548110614dda57614dd9615918565b5b90600052602060002090600891828204019190066004029054906101000a900460e01b905080838381548110614e1357614e12615918565b5b90600052602060002090600891828204019190066004026101000a81548163ffffffff021916908360e01c021790555081600c60003373ffffffffffffffffffffffffffffffffffffffff1673ffffffffffffffffffffffffffffffffffffffff1681526020019081526020016000206000837bffffffffffffffffffffffffffffffffffffffffffffffffffffffff19167bffffffffffffffffffffffffffffffffffffffffffffffffffffffff1916815260200190815260200160002081905550505b81805480614ee957614ee8615947565b5b60019003818190600052602060002090600891828204019190066004026101000a81549063ffffffff02191690559055600c60003373ffffffffffffffffffffffffffffffffffffffff1673ffffffffffffffffffffffffffffffffffffffff1681526020019081526020016000206000877bffffffffffffffffffffffffffffffffffffffffffffffffffffffff19167bffffffffffffffffffffffffffffffffffffffffffffffffffffffff1916815260200190815260200160002060009055505050505050565b508054614fbf9061570c565b6000825580601f10614fd15750614ff0565b601f016020900490600052602060002090810190614fef9190614ff3565b5b50565b5b8082111561500c576000816000905550600101614ff4565b5090565b6000604051905090565b600080fd5b600080fd5b60007fffffffff0000000000000000000000000000000000000000000000000000000082169050919050565b61505981615024565b811461506457600080fd5b50565b60008135905061507681615050565b92915050565b6000602082840312156150925761509161501a565b5b60006150a084828501615067565b91505092915050565b600073ffffffffffffffffffffffffffffffffffffffff82169050919050565b60006150d4826150a9565b9050919050565b6150e4816150c9565b82525050565b6150f381615024565b82525050565b600081519050919050565b600082825260208201905092915050565b60005b83811015615133578082015181840152602081019050615118565b60008484015250505050565b6000601f19601f8301169050919050565b600061515b826150f9565b6151658185615104565b9350615175818560208601615115565b61517e8161513f565b840191505092915050565b6000819050919050565b61519c81615189565b82525050565b600060c0820190506151b760008301896150db565b6151c460208301886150ea565b6151d160408301876150ea565b81810360608301526151e38186615150565b90506151f26080830185615193565b6151ff60a0830184615193565b979650505050505050565b600081519050919050565b600082825260208201905092915050565b6000819050602082019050919050565b61523f81615024565b82525050565b60006152518383615236565b60208301905092915050565b6000602082019050919050565b60006152758261520a565b61527f8185615215565b935061528a83615226565b8060005b838110156152bb5781516152a28882615245565b97506152ad8361525d565b92505060018101905061528e565b5085935050505092915050565b600060208201905081810360008301526152e2818461526a565b905092915050565b60008115159050919050565b6152ff816152ea565b82525050565b600060208201905061531a60008301846152f6565b92915050565b600080fd5b600080fd5b7f4e487b7100000000000000000000000000000000000000000000000000000000600052604160045260246000fd5b6153628261513f565b810181811067ffffffffffffffff821117156153815761538061532a565b5b80604052505050565b6000615394615010565b90506153a08282615359565b919050565b600067ffffffffffffffff8211156153c0576153bf61532a565b5b6153c98261513f565b9050602081019050919050565b82818337600083830152505050565b60006153f86153f3846153a5565b61538a565b90508281526020810184848401111561541457615413615325565b5b61541f8482856153d6565b509392505050565b600082601f83011261543c5761543b615320565b5b813561544c8482602086016153e5565b91505092915050565b6000806040838503121561546c5761546b61501a565b5b600061547a85828601615067565b925050602083013567ffffffffffffffff81111561549b5761549a61501f565b5b6154a785828601615427565b9150509250929050565b6154ba816152ea565b81146154c557600080fd5b50565b6000813590506154d7816154b1565b92915050565b6000602082840312156154f3576154f261501a565b5b6000615501848285016154c8565b91505092915050565b615513816150c9565b811461551e57600080fd5b50565b6000813590506155308161550a565b92915050565b60006020828403121561554c5761554b61501a565b5b600061555a84828501615521565b91505092915050565b6000602082840312156155795761557861501a565b5b600082013567ffffffffffffffff8111156155975761559661501f565b5b6155a384828501615427565b91505092915050565b600060c0820190506155c160008301896150db565b6155ce60208301886150ea565b81810360408301526155e08187615150565b90506155ef6060830186615193565b6155fc6080830185615193565b61560960a0830184615193565b979650505050505050565b600060208201905061562960008301846150db565b92915050565b60008151905061563e816154b1565b92915050565b60006020828403121561565a5761565961501a565b5b60006156688482850161562f565b91505092915050565b7f55736572206973206e6f74204c6f6767656420696e0000000000000000000000600082015250565b60006156a7601583615104565b91506156b282615671565b602082019050919050565b600060208201905081810360008301526156d68161569a565b9050919050565b7f4e487b7100000000000000000000000000000000000000000000000000000000600052602260045260246000fd5b6000600282049050600182168061572457607f821691505b602082108103615737576157366156dd565b5b50919050565b7f596f7520616c7265616479206c696b6564206974000000000000000000000000600082015250565b6000615773601483615104565b915061577e8261573d565b602082019050919050565b600060208201905081810360008301526157a281615766565b9050919050565b7f4e487b7100000000000000000000000000000000000000000000000000000000600052601160045260246000fd5b60006157e382615189565b91506157ee83615189565b9250828201905080821115615806576158056157a9565b5b92915050565b7f506f737420646f65736e27742065786973742e00000000000000000000000000600082015250565b6000615842601383615104565b915061584d8261580c565b602082019050919050565b6000602082019050818103600083015261587181615835565b9050919050565b7f4e6f7420506f7374206f776e6572000000000000000000000000000000000000600082015250565b60006158ae600e83615104565b91506158b982615878565b602082019050919050565b600060208201905081810360008301526158dd816158a1565b9050919050565b60006158ef82615189565b91506158fa83615189565b9250828203905081811115615912576159116157a9565b5b92915050565b7f4e487b7100000000000000000000000000000000000000000000000000000000600052603260045260246000fd5b7f4e487b7100000000000000000000000000000000000000000000000000000000600052603160045260246000fd5b60008190508160005260206000209050919050565b60006020601f8301049050919050565b600082821b905092915050565b6000600883026159d87fffffffffffffffffffffffffffffffffffffffffffffffffffffffffffffffff8261599b565b6159e2868361599b565b95508019841693508086168417925050509392505050565b6000819050919050565b6000615a1f615a1a615a1584615189565b6159fa565b615189565b9050919050565b6000819050919050565b615a3983615a04565b615a4d615a4582615a26565b8484546159a8565b825550505050565b600090565b615a62615a55565b615a6d818484615a30565b505050565b5b81811015615a9157615a86600082615a5a565b600181019050615a73565b5050565b601f821115615ad657615aa781615976565b615ab08461598b565b81016020851015615abf578190505b615ad3615acb8561598b565b830182615a72565b50505b505050565b600082821c905092915050565b6000615af960001984600802615adb565b1980831691505092915050565b6000615b128383615ae8565b9150826002028217905092915050565b615b2b826150f9565b67ffffffffffffffff811115615b4457615b4361532a565b5b615b4e825461570c565b615b59828285615a95565b600060209050601f831160018114615b8c5760008415615b7a578287015190505b615b848582615b06565b865550615bec565b601f198416615b9a86615976565b60005b82811015615bc257848901518255600182019150602085019450602081019050615b9d565b86831015615bdf5784890151615bdb601f891682615ae8565b8355505b6001600288020188555050505b505050505050565b60008160601b9050919050565b6000615c0c82615bf4565b9050919050565b6000615c1e82615c01565b9050919050565b615c36615c31826150c9565b615c13565b82525050565b6000819050919050565b615c57615c5282615024565b615c3c565b82525050565b600081905092915050565b6000615c73826150f9565b615c7d8185615c5d565b9350615c8d818560208601615115565b80840191505092915050565b6000819050919050565b615cb4615caf82615189565b615c99565b82525050565b6000615cc68287615c25565b601482019150615cd68286615c46565b600482019150615ce68285615c68565b9150615cf28284615ca3565b60208201915081905095945050505050565b6000615d108286615c25565b601482019150615d208285615c68565b9150615d2c8284615ca3565b602082019150819050949350505050565b7f596f7520616c7265616479206469736c696b6520697400000000000000000000600082015250565b6000615d73601683615104565b9150615d7e82615d3d565b602082019050919050565b60006020820190508181036000830152615da281615d66565b905091905056fea2646970667358221220f59557ae4d1193836ae579ee27a14716551d6cc8ad7307827cca2d3d995b5ef264736f6c63430008180033",
  "linkReferences": {},
  "deployedLinkReferences": {}
}